:100000006F40F00013000000130000001300000018
:100010001300000013000000130000001300000094
:100020001300000013000000130000001300000084
:10003000130000006F40A07D1300000013000000BB
:100040000E48000000000000740D0000000D0000CC
:1000500000000000740D000000000000000000001F
:10006000740D0000740D000000000000000000008E
:10007000540F000000000000AC0D00000000000064
:10008000740D0000740D0000740D0000740D00006C
:10009000740D0000740D00004C0E0000800E000076
:1000A000B40E0000E80E00001C0F0000740D0000EC
:1000B000740D0000740D0000740D0000740D00003C
:1000C000740D0000740D0000880F0000740D000016
:1000D000740D0000740D0000740D0000740D00001C
:1000E000740D0000740D0000740D0000740D00000C
:1000F000740D0000740D0000740D0000740D0000FC
:10010000740D0000740D0000740D0000740D0000EB
:10011000740D0000740D0000740D0000740D0000DB
:10012000740D0000740D0000740D0000740D0000CB
:10013000740D0000740D0000740D0000F401000047
:10014000FFFFFFFF1D2D2D2D204D6563726973701C
:100150002D5175696E74757320312E312E32202D1C
:100160002D2DB7270240984B1367070898CB828044
:10017000B72702403707674513073712D8C33797A9
:10018000EFCD1307B79AD8C38280B7270240D8476C
:10019000058B75FFD847418B19CFEF1040421645AC
:1001A000726173696E6720666C6173682065727234
:1001B0006F7220210A008280511106C42AC22EC00B
:1001C000453F37250240D1370C49114793070004BA
:1001D000D98D0CC90C49DD8D0CC9453F0C4913075D
:1001E000B0FFF98D0CC9B53FA240124582453101DF
:1001F00082800000B0020000000000000768666C0A
:1002000061736821511106C42AC22EC0F11480C046
:10021000EF20A010A28780409104ADC39567636F63
:10022000F404228580409104A28580409104937754
:100230001500A9E783570500396713079733639FB4
:10024000E702B967938797336385F5021537353F22
:10025000370700083A95B7270240984B13671700F5
:1002600098CB2310B500984B1377E7FF98CB313F1D
:10027000CD3DA2401245824531018280EF102034ED
:100280002A57726F6E672061646472657373206FA2
:1002900072206461746120666F722077726974697C
:1002A0006E6720666C61736820210A006F30201E23
:1002B000E80200000000000006666C61736821001F
:1002C000711106C0F11480C0C040C167FD177D8C5C
:1002D000F11480C0C0403D3709049C40C1839CC0DC
:1002E0001537824011018280740300000000000075
:1002F0000E666C6173687061676565726173650035
:10030000711106C0F11480C0EF202001A287804047
:1003100091049DCB95676369F402853D913DB727B4
:100320000240984B1367270098CB370700083A9490
:10033000C0CB80409104984B1367070498CBB1352C
:100340000D35824011018280EF1060272257726FB5
:100350006E67206164647265737320666F722065D6
:10036000726173696E6720666C61736820210A0090
:100370006F30E011F4030000000000000A657261B4
:100380007365666C617368001565A16537E639E3CE
:10039000130696331441638EC602F11480C02A847A
:1003A000F11480C0EF10A0211045726173652062C6
:1003B0006C6F636B206174202000EF10C039EF1068
:1003C00000200C2066726F6D20466C6173680A0015
:1003D000053F1105E310B5FCEF10601E1246696E73
:1003E00069736865642E20526573657420210A0064
:1003F0006F40E04114040000000000000E657261CF
:100400007365666C61736866726F6D0022858040EB
:100410009104A5BF2804000020040000037370406D
:10042000F11480C0268482803C0400002004000077
:1004300003737021A28480409104828050040000E4
:100440002000000003727040F11480C00A84828092
:1004500064040000200000000372702122818040AB
:1004600091048280780400006104000003647570C8
:10047000F11480C0828000008C0400006104000040
:100480000464726F7000804091048280A4040000B4
:1004900061040000043F6475700019C0F11480C04D
:1004A00082800000BC0400006204000004737761D5
:1004B0007000A28780409CC082800000CC040000B5
:1004C00062040000036E697091048280E4040000FD
:1004D00062040000046F76657200F11480C0C040B1
:1004E00082800000FC040000620400000474756354
:1004F0006B009C40F114C0C09CC0828014050000B9
:100500004300000003726F749C40D84080C0DCC080
:100510003A8482803005000043000000042D726F91
:1005200074009C40D84098C0C0C03E8482800000C7
:100530004805000020040000047069636B000A0491
:1005400026940040828000006C050000000000003E
:10055000056465707468B70700209387C726858F88
:10056000F11480C013D4274082800000940500005D
:10057000000000000672646570746800B707002010
:100580009387C746B3872740F11480C013D4274010
:1005900082800000AC05000020000000023E7200D6
:1005A000711122C08040910482800000C4050000C7
:1005B0002000000002723E00F11480C002441101CC
:1005C00082800000D8050000200000000272400078
:1005D000F11480C002448280EC050000200000007D
:1005E000057264726F7011018280000004060000C1
:1005F0002000000005727069636B0A040A940040D1
:10060000828000001C0600006104000002303D00F2
:100610001334140033048040828000003006000050
:100620006104000003303C3E133414007D148280CA
:10063000400600006104000002303C007D8482809E
:100640005806000062040000023E3D009C409104F8
:1006500033A487007D1482807006000062040000CD
:10066000023C3D009C4091043324F4007D148280C0
:100670008806000062040000013C9C40910433A401
:100680008700330480408280A006000062040000DE
:10069000013E9C4091043324F40033048040828066
:1006A000B80600006204000003753E3D9C409104C2
:1006B00033B487007D148280D006000062040000FD
:1006C00003753C3D9C4091043334F4007D148280DA
:1006D000EC0600006204000002753C009C4091049E
:1006E00033B4870033048040828000000807000094
:1006F0006204000002753E009C4091043334F40013
:10070000330480408280000024070000620400005F
:10071000023C3E009C4091043D8C133414007D1437
:10072000828000004007000062040000013D9C4000
:1007300091043D8C13341400330480408280000007
:100740005807000062040000036D696E9C4091042C
:100750006343F4003E84828070070000620400005E
:10076000036D61789C40910463C387003E8482805E
:100770008C0700006204000004756D696E009C40E7
:1007800091046363F4003E8482800000A8070000A7
:100790006204000004756D6178009C40910463E37D
:1007A00087003E8482800000080800006206000086
:1007B000012B9C4091043E9482803707040013076C
:1007C0003741B707F40093873743711106C06111B1
:1007D0003AC23EC0930700803377F4006303F7000A
:1007E00011E75204924721015D8C11A8F11480C0D9
:1007F0003D44EF104036F11480C002442101824094
:1008000011016F10D03F00002408000062060000B4
:10081000012D9C4091043384874082801344F4FF6F
:10082000050461BF4C0800006206000003736C748D
:100830009C40910433A4870082803727040013076B
:100840003741B727F4009387374341B77808000052
:100850006206000004736C7475009C40910433B40C
:10086000870082803737040013073741B737F40019
:100870009387374399BF0000880800006104000097
:1008800002312D007D148280980800006104000070
:1008900002312B0005048280A808000061040000DA
:1008A00002322D0079148280B80800006104000033
:1008B00002322B0009048280CC0800006104000091
:1008C0000563656C6C2B110482800000E408000055
:1008D00061040000066E6567617465003304804042
:1008E00082800000F4080000610400000373687255
:1008F0000580828004090000610400000373686CB5
:1009000006048280140900006104000002322A00FB
:100910002294828028090000610400000563656C50
:100920006C730A0482800000380900006104000032
:1009300002322F000584828050090000610400000B
:10094000036162739357F4413E943D8C82800000B2
:100950006809000061040000046576656E00937705
:1009600014003E948280000088090000810000008D
:10097000046261736500F11480C037240020130401
:10098000C47F82800A0000009C0900000000000073
:100990000662696E61727900894715A0B00900008E
:1009A0000000000007646563696D616CA94701A8D8
:1009B000CC0900000000000003686578C1473727B4
:1009C00000201307C77F1CC382800000EC090000D1
:1009D000000000000565696E743FF11480C0732447
:1009E00000302188133414007D148280000A000036
:1009F000200400000465696E740073600430828016
:100A0000140A0000200400000464696E740073700E
:100A100004308280280A0000200400000377666901
:100A20007300501082800000580A0000000000008F
:100A3000086379636C6573363400F11480C0F32762
:100A400000C8732400C0732700C8E39AE7FEF114BE
:100A500080C03E8482800000740A00000000000014
:100A6000066379636C657300F11480C0732400C061
:100A7000828000008C0A000000000000056D697390
:100A80006140F11480C0732410308280A80A0000F5
:100A900000000000076D696D70696440F11480C04A
:100AA000732430F182800000C40A000000000000BE
:100AB000086D6172636869644000F11480C073243A
:100AC00020F18280DC0A000000000000056D6570E6
:100AD000632173101434804091048280F40A000072
:100AE00000000000056D65706340F11480C0732440
:100AF00010348280100B000000000000076D63615D
:100B000075736540F11480C0732420348280000026
:100B10002C0B000000000000066D7476616C400034
:100B2000F11480C073243034828000005C0B00001C
:100B300000000000086D656D6661756C74007111D0
:100B400006C0EF00D027134D656D6F727920616389
:100B500063657373206572726F7261A0A80B0000E9
:100B60000000000013756E68616E646C65642D6E24
:100B70006F6E766563746F72711106C0EF0030247A
:100B800022556E68616E646C656420496E7465728E
:100B90007275707420286E6F6E2D766563746F7237
:100BA000656429003DA80000EC0B00000000000077
:100BB00009756E68616E646C6564711106C0EF0042
:100BC00010201E556E68616E646C656420496E74F9
:100BD0006572727570742028766563746F726564CF
:100BE000290091288240110182800000C40C00007D
:100BF00000000000056661756C74711106C0EF009D
:100C0000101C13556E68616E646C656420457863D2
:100C1000657074696F6E0520F327103403D70700E1
:100C200013F737007517890711E389077390173495
:100C3000824011018280711106C0EF005018092016
:100C40006D63617573653A20753DEF00D030EF003C
:100C50001017066D6570633A2000413DEF00B02F1C
:100C6000EF00F015076D7476616C3A20553DEF008A
:100C7000902EEF00D01402210A00824011018280E0
:100C80003AD63ED442D246D04ACE4ECC52CA56C8AC
:100C90005AC65EC462C266C083A00000E78000003E
:100CA000824C124CA24B324BC24A524AE249724920
:100CB00082581258A2573257C25013014103730091
:100CC00020300000100D00008100000009697271E1
:100CD0002D6661756C74F11480C0372400201304F4
:100CE000847F8280FA0B00001300000013000000D4
:100CF00013000000130000001300000013000000A8
:100D00001301C1FC06D8B72000209380807F8DBFDF
:100D1000480D0000810000000D6972712D6E6F6E2C
:100D2000766563746F72F11480C037240020130459
:100D3000447F8280780B00001301C1FC06D8B720E5
:100D400000209380407F2DBF840D000081000000B3
:100D50000E6972712D636F6C6C656374696F6E00E0
:100D6000F11480C0372400201304047F8280BA0B62
:100D7000000001001301C1FC06D8B72000209380B9
:100D8000007FFDBDBC0D0000810000000C69727188
:100D90002D736F66747761726500F11480C037241B
:100DA00000201304C47E8280BA0B00001301C1FC32
:100DB00006D8B72000209380C07ED9B5F00D000082
:100DC00081000000096972712D74696D6572F114FA
:100DD00080C0372400201304847E8280BA0B000078
:100DE0001301C1FC06D8B72000209380807E49BD46
:100DF000280E0000810000000C6972712D6D656D78
:100E00006661756C7400F11480C0372400201304EF
:100E1000447E82803E0B00001301C1FC06D8B7203F
:100E200000209380407EA9BD5C0E00008100000080
:100E3000096972712D6578746930F11480C03724A6
:100E400000201304047E8280BA0B00001301C1FC51
:100E500006D8B72000209380007E1DB5900E0000BC
:100E600081000000096972712D6578746931F1148F
:100E700080C0372400201304C47D8280BA0B000098
:100E80001301C1FC06D8B72000209380C07DCDBBE4
:100E9000C40E000081000000096972712D6578742C
:100EA0006932F11480C0372400201304847D8280CD
:100EB000BA0B00001301C1FC06D8B72000209380B4
:100EC000807D7DBBF80E0000810000000969727111
:100ED0002D6578746933F11480C037240020130421
:100EE000447D8280BA0B00001301C1FC06D8B720F4
:100EF00000209380407D69B32C0F0000810000002A
:100F0000096972712D6578746934F11480C03724D1
:100F100000201304047D8280BA0B00001301C1FC81
:100F200006D8B72000209380007D99BB640F000095
:100F3000810000000B6972712D7379737469636BA2
:100F4000F11480C0372400201304C47C8280BA0BC3
:100F5000000001001301C1FC06D8B72000209380D7
:100F6000C07C39BB980F00008100000007697271D6
:100F70002D616463F11480C0372400201304847C45
:100F80008280BA0B000001001301C1FC06D8B72013
:100F900000209380807CEDB1BC0F00008100000038
:100FA00009686F6F6B2D656D6974F11480C037240B
:100FB00000201304447C828074110000E00F0000C4
:100FC0008100000008686F6F6B2D6B657900F1146C
:100FD00080C0372400201304047C8280AC11000000
:100FE00008100000810000000A686F6F6B2D656DAE
:100FF00069743F00F11480C0372400201304C47BBF
:101000008280E611000000002C100000810000002A
:1010100009686F6F6B2D6B65793FF11480C03724C1
:1010200000201304847B82802012000054100000F2
:10103000810000000A686F6F6B2D70617573650029
:10104000F11480C0372400201304447B8280601098
:10105000000000006410000000000000036E6F70CC
:1010600082800000801000000000000004656D69AF
:101070007400B72700209387477C9C436780070054
:101080009C10000000000000036B6579B72700206A
:101090009387077C9C43678007000000B81000001E
:1010A0000000000005656D69743FB7270020938735
:1010B000C77B9C4367800700D4100000000000003D
:1010C000046B65793F00B72700209387877B9C439B
:1010D0006780070060110000000000000570617566
:1010E0007365B72700209387477B9C436780070081
:1010F000B7170240E107114798C3B7170240F1073D
:101100003707020098C33167B717014093870781FB
:101110002390E700B7170140938707809843C17772
:101120009387F70F7D8F9567938707B05D8FB7170C
:1011300001409387078098C3B747004093870740D3
:101140001307800498C73147D8C7056798CBD8479D
:1011500089675D8FB747004093870740D8C7828073
:1011600098110000000000000B73657269616C2D1E
:10117000656D6974711106C0BD20A287804091041D
:10118000E5DFB74700409387074023828700804010
:101190009104824011018280D01100000000000003
:1011A0000A73657269616C2D6B657900711106C0F7
:1011B0008528A28780409104E5DFF11480C0374480
:1011C0000040130404400304440082401101828063
:1011D0000C120000000000000C73657269616C2D38
:1011E000656D69743F00711106C0E53DF11480C062
:1011F00037440040130404400040137404081334BF
:1012000014007D148240110182800000441200000D
:10121000000000000B73657269616C2D6B65793F8E
:10122000711106C07D3DF11480C0374400401304A5
:101230000440004013740402133414007D148240EF
:1012400011018280641200000000000005726573C5
:101250006574B7F700E0938707D13707008098C31C
:101260006F30E05A00130000000000000661636365
:1012700065707400411106C62AC42EC232C08C406B
:101280009104014621352285804091049307F0079F
:101290006300F50493070002636DF500E37486FEB6
:1012A000F11480C02A84F1332380A500850505064A
:1012B000D1BFA5476315F50013050002C5B7A947BF
:1012C0006308F502B5476305F502A147E31CF5FA8B
:1012D00055DAF5240308200855D6FD157D1603C5FB
:1012E000050093770508D9DF93770504C1FFEDB7B3
:1012F0003284B24022459245024641017DA200005F
:101300001C1300004000000003746962F11480C0E7
:10131000370400201304C446828000003C13000000
:1013200081000000033E696EF11480C03724002064
:101330001304047B82800000000000006C13000096
:10134000820000000E63757272656E742D736F7586
:1013500072636500F11480C0372400201304847A7E
:101360008280000000006C04002000009413000044
:101370000000000009736574736F75726365B727A9
:1013800000209387877A80C380409104C0C3804047
:1013900091048280C41300000000000006736F7582
:1013A0007263650071112AC0372500201305857A04
:1013B000F11480C04041F11480C000410245110188
:1013C00082800000F81300000000000005717565C0
:1013D0007279711106C0893F81471CC08040910419
:1013E0003537F11480C0F11480C01304800C5935D6
:1013F0008240110169B7000068140000000000007D
:1014000007636F6D7061726551112AC42EC232C0BC
:1014100022858C40D0408044B1046305C50013048C
:1014200000002DA81DC903C605001337160411E7D7
:101430001337B60519C3130606028347040013B712
:10144000170411E713B7B70519C393870702E31809
:10145000F6FC7D1585050504F1B77D5422459245BE
:101460000246310182800000841400000000000068
:1014700002637200711106C09922010A82401101B3
:10148000828000009C1400000000000002626C00DA
:10149000F11480C01304000282800000B414000024
:1014A00000000000057370616365F11480C01304CF
:1014B0000002C1B6DC140000000000000673706179
:1014C00063657300711106C063558000F93F7D1498
:1014D000E5BF80409104824011018280F014000039
:1014E00050000000065B636861725D0009A800009F
:1014F000141500000000000004636861720071119F
:1015000006C0C121804091040344040082401101BF
:101510008280000028150000500000000128F1140E
:1015200080C01304900209A8481500005000000074
:10153000015CF11480C00144711106C07929C040DA
:10154000A104824011018280781500003000000063
:10155000022E2200F11480C0170400001304640658
:10156000711106C02927F11480C013042002B5218F
:10157000824011016F0050059415000030000000FA
:1015800002632200F11480C0170400001304A405B4
:10159000C1BF0000B015000030000000027322003F
:1015A000F11480C0170400001304240655BF000086
:1015B000D41500000000000004282E222900F11498
:1015C00080C0068483C700008500BE9093F710009A
:1015D000BE9045A0F815000000000000042863221A
:1015E0002900F11480C0068483C700008500BE90E6
:1015F00093F71000BE9082801C16000000000000CF
:10160000042873222900F11480C0068483C70000D7
:101610008500BE9093F71000BE9075A06416000080
:101620000000000004286E222900611106C22AC0B1
:1016300083470400A5CF05043305F4008347040065
:1016400013D747002A9703470700BD8BAA97E114D9
:10165000C0C098C003C40700293C213C0504E31F17
:10166000A4FCA9A0801600000000000005637479A6
:101670007065611106C22AC003450400050431A843
:10168000B816000000000000047479706500611154
:1016900006C22AC022858040910409C9F11480C085
:1016A00003440400F93205047D156DF9804091046E
:1016B0009240024521018280D41600000000000003
:1016C00005636F756E740504F11480C00344F4FF64
:1016D00082800000F8160000000000000A736B69A9
:1016E00070737472696E67008347040005043E944A
:1016F000937714003E948280481700000000000099
:1017000006726973632D7600711106C04D3D324D2E
:101710006563726973702D5175696E7475732031CC
:101720002E312E3220666F7220524953432D56209F
:101730006279204D61747468696173204B6F6368CE
:101740000A0082401101828094170000000000000E
:10175000046865782E00411106C62AC42EC232C024
:1017600022858040910493050002F11480C0135437
:10177000C5013D8829466363C4001D0413040403A6
:10178000CD381205F115F5F1B240224592450246D9
:10179000410121BB0818000000000000032E7273F5
:1017A000511106C42AC22EC0193D0F5265747572BC
:1017B0006E737461636B3A205B20B70700209387D8
:1017C000C746B387274063C8070293D5270085051E
:1017D000F11480C02E844137DD33025D200081CDBD
:1017E000370500201305C546F11480C00041A53718
:1017F0007115FD15F5F9E13304202A3E0A00A240D7
:1018000012458245310182809818000000000000D6
:1018100005776F726473711106C05533010AEF10BA
:10182000E000713B09416464726573733A20F114FE
:1018300080C015376933064C696E6B3A2000F1148D
:1018400080C00040093FA53B07466C6167733A20A2
:10185000F11480C0404001379D3306436F64653A00
:101860002000F11480C021044135F535893B064E36
:10187000616D653A2000F11480C02104DD3B8133A5
:10188000010AEF00307EA28780409104D9DB8040BE
:101890009104824011018280D418000000000000F1
:1018A00006756E7573656400711106C0EF007022D5
:1018B000EF00F042A2878040910499E3A16731A034
:1018C000EF007023A28780409104338487408240D8
:1018D00011018280EC1800000000000003682E73E4
:1018E00097070000938767E705A800000419000028
:1018F00000000000022E7300972700009387270A3C
:1019000021A80000B41900000000000003752E7328
:101910009727000093878707311106C82AC62EC46F
:1019200032C236C03E85613909537461636B3A2017
:101930005B20372700201307C77F1443A9471CC328
:10194000B70500209385C526858D63CF0502898163
:10195000F11480C02E84EF2040049531025D2000F8
:10196000372700201307C77F14C363CF050089CD35
:101970003706002013068626F11480C00042E700D7
:1019800005007116FD15EDF91D390620544F533A27
:101990002000F11480C02284E70005000D310420EE
:1019A0002A3E0A00C2403245A245124682465101F3
:1019B00082800000CC1900000000000005746F6BED
:1019C000656EF11480C01304000201A8A41A00007F
:1019D00000000000057061727365411106C62AC4DB
:1019E0002EC232C0C132A2858840C040A1042D3A27
:1019F0001040804091043307C50093070002631E26
:101A0000F400638AC502B307C50083C70700639665
:101A1000870005063307C500EDB7638EC500B30721
:101A2000C50083C707000506E39987FE3304C50098
:101A3000198C7D1421A03304C500198CF11498C0B1
:101A4000E53010C080409104B240224592450246E4
:101A500041018280611106C22AC022858040910422
:101A6000856793870780E18F99C385673E94F1145A
:101A700080C0FD777D8C1364747BF11480C02A8450
:101A8000EF0050105204B7870700938777465D8CAC
:101A9000F11480C02A8411049240024521016F0094
:101AA000700E0000E41A00002000000005646F655D
:101AB000733EF11480C0B7270000678407AC8280B2
:101AC000711106C0F11480C0370400207104004079
:101AD0002104937724003E94B53FDD2D110182400F
:101AE00011018280141B000000000000073C627599
:101AF000696C6473711106C0EF00702E4D29892A3C
:101B0000EF00F005F11480C02144EF005011824035
:101B1000110182803C1B000000000000066372651A
:101B200061746500711106C0F137F11480C0B727E8
:101B30000000678407AC8240110182802C1C0000E9
:101B4000000000001072656769737465726C6974D7
:101B50006572616C2C0019E06F107077611106C21C
:101B60002AC0228580409104930700803377F400D7
:101B70006303F70021E381573377F4006303F70031
:101B800005E39377F4018A071357F40132071164D0
:101B900005045D8C598C1E05498CEF00300259A05C
:101BA00052049167CD0713177500D98F5D8CEF0034
:101BB00010058DA8856793870780E18F99C3FD770E
:101BC0003D8C89476307F50281773377F40063031F
:101BD000F70005E3F11480C0298485679387C70760
:101BE0007D8C996785075D8C13177500598CF927D3
:101BF00019A8F11480C0FD777D8C1364740313174A
:101C00007500598CED2F520401E48040910419A80D
:101C10009167CD0713177500D98F1317F500D98F6A
:101C20005D8CF12F9240024521018280601C0000F2
:101C300000000000086C69746572616C2C00711101
:101C400006C03920F11480C021448240110121B71F
:101C5000F11480C017F4FFFF1304C48161A80000D1
:101C6000E41C0000000000000563616C6C2C711125
:101C700006C0F11480C0B12DEFE0BFB9EF102016FF
:101C8000A2878040910481CB9104896785075D8C90
:101C90008240110125A7EF104008A28780409104DF
:101CA00081CB91049307F00E5D8C8240110181AFCE
:101CB00080409104856793870780E18F99C385678A
:101CC0003E94F11480C0FD777D8C1364747B052FE6
:101CD0005204B78707009387770E5D8C824011010D
:101CE00039AF00007C1D00000000000007696E6C29
:101CF000696E652C711106C08357040005671307D0
:101D000017176399E7008357240031671907639316
:101D1000E700110483570400116713072708639F26
:101D2000E70083572400130710116399E7008357D6
:101D30004400216713072708638DE70283570400D7
:101D40002167130727086386E7028357040013F708
:101D5000370075176318E000F11480C003540400C5
:101D6000B12D0904F11480C003540400812D09042D
:101D700061B780409104824011018280B81D00004B
:101D8000000000000E736B6970646566696E6974AB
:101D9000696F6E008357040013F7370075176309E6
:101DA000E00009042167130727086385E700DDB712
:101DB0001104CDB7828000002C1E0000000000003E
:101DC00007737472696E672C311106C82AC62EC457
:101DD00032C236C01375F40F8C409104A92015202F
:101DE00009C9F11480C003C4050021287D158505AB
:101DF000C5BF0D20C2403245A24512468246510160
:101E000082803314C400C18E804091042106C147F2
:101E1000631DF60009CA711106C0F11480C0368432
:101E2000712B824011010146814682803C1E0000D8
:101E300050000000035B275D39A00000781E000001
:101E4000000000000127511106C42AC22EC0953E91
:101E50008840A285EF007026A2878040910419E493
:101E6000F11480C088C02E846F10A04CA24012458F
:101E70008245310182800000C01E00003000000059
:101E800008706F7374706F6E6500711106C0653FE6
:101E900013F707011DE313F7070209CB4D33F114C4
:101EA00080C017040000130424E501A8493BF11485
:101EB00080C0170400001304C4DB8240110145BB3D
:101EC000E81E00003000000004657869740071119C
:101ED00006C0F11480C037441101130424080523FF
:101EE0008240110109A80000041F0000000000004A
:101EF000047265742C00F11480C02164130424085A
:101F000075A90000241F00003000000007726563FF
:101F100075727365F11480C03704002071040040AD
:101F2000B9B30000441F0000810000000573746114
:101F30007465F11480C0372400201304447A828031
:101F400000000000641F000081000000042873707E
:101F50002900F11480C0372400201304047A828001
:101F600000000000741F000000000000015DFD572C
:101F700001A800008C1F000010000000015B8147D9
:101F8000372700201307477A1CC38280BC1F00003C
:101F900000000000013A711106C037270020130726
:101FA000077A04C32D2D824011018547D1BFF1145A
:101FB00080C0371406C01304141791A11420000028
:101FC00030040000013B711106C0372700201307C1
:101FD000077A1C4363819702EFF06FDE152053747C
:101FE00061636B206E6F742062616C616E63656407
:101FF0002E0A6F10C049372700201307477A18436D
:1020000085476314F700C53D11A0D135D122824028
:102010001101B5B7302000000000000007657865A9
:1020200063757465A2878040910467800700000093
:10203000482000001000000009696D6D6564696149
:102040007465C14735A20000602000005000000008
:1020500006696E6C696E65009307000211AA0000A4
:102060007820000050000000076E6F6672616D6599
:1020700093070040F5A80000942000001000000025
:102080000B636F6D70696C656F6E6C7993070003FD
:10209000C5A00000B0200000500000000A302D66EE
:1020A0006F6C6461626C650093070004D1A000004E
:1020B000CC200000500000000A312D666F6C646176
:1020C000626C65009307100465A00000E820000022
:1020D000500000000A322D666F6C6461626C65000E
:1020E0009307200471A000000421000050000000AC
:1020F0000A332D666F6C6461626C6500930730046F
:1021000085A8000020210000500000000A342D6640
:102110006F6C6461626C65009307400491A80000D5
:102120003C210000500000000A352D666F6C646190
:10213000626C65009307500425A800005821000038
:10214000500000000A362D666F6C6461626C650099
:102150009307600431A800007821000050000000BF
:102160000A372D666F6C6461626C650093077004BA
:10217000F11480C03E84E1A09C210000000000001A
:1021800008636F6E7374616E7400711106C08129EB
:102190007D349533113F824011011DA8C0210000FC
:1021A000000000000932636F6E7374616E74711108
:1021B00006C03521A28780409CC05134D1BF0000A9
:1021C0002C2200000000000006736D756467650036
:1021D000711106C069222126A28780409104B9E3CB
:1021E000CD288327C4FF37E739E3130797338040AF
:1021F00091046396E700F11480C001440924F114AE
:1022000080C037040020130404020040F11480C091
:1022100037040020210400401104EFE06F8A82405F
:1022200011018280F11480C0014405A8A42200009D
:102230000000000008736574666C616773003757AF
:10224000EA051307E71D631887001724000013042D
:1022500084716FF08FBD711106C05124A287804038
:10226000910489EF37070020130707021C43C18F31
:102270001CC38040910482401101828037070020F6
:10228000210718435C4371112AC07D556393A70051
:10229000A287C18F024511015CC380409104824036
:1022A00011018280C42200004100000007616C69B6
:1022B000676E6564937714003E94937724003E9490
:1022C00082800000E02200000000000004686572C7
:1022D0006500F11480C037040020004082800000B7
:1022E00004230000000000000D666C6173687661D5
:1022F000722D68657265F11480C0370400204104B6
:102300000040828020230000000000000C61646413
:1023100072696E666C6173683F000147A1670DA02A
:1023200050230000000000000A61646472696E724C
:10233000616D3F0037070020B73700209387078083
:102340006366E4006374F4007D54828001448280FB
:10235000B02300000000000005616C69676E711118
:1023600006C0853F937714003E943707002000C3D2
:10237000098801C40544992019A080409104824035
:1023800011018280711106C09C40E114C0C09CC044
:102390001928A28780409CC04180A28780409CC0B1
:1023A000090482401101711106C0F11480C005A01A
:1023B000F42300000000000002682C00711106C028
:1023C000093FF11480C0F11480C009448928B13755
:1023D000A2878040910481C7EFD0DFE201A8A287E5
:1023E0008040910423908700804091048240110135
:1023F000828000001024000000000000012C7111F8
:1024000006C0F11480C05D3F4180824011017DB75C
:102410008C2400000000000005616C6C6F74611179
:1024200006C22AC02285804091045528A287804098
:10243000910495E3370700201C43AA97216563EEBA
:10244000A702EFF0CF970B466C6173682066756C3E
:102450006C0A6F10C0034535370700201C43AA974C
:1024600063EB8700EFF0AF950952616D2066756CE4
:102470006C0A6F10C001804091041CC39240024559
:1024800021018280F11480C0114451BFC824000092
:102490000000000009666F7267657472616D7111EA
:1024A00006C0952037070020B707002093874753C1
:1024B0001CC337070020210797E7FFFF938747C812
:1024C0001CC3824011018280F02400000000000043
:1024D0000D636F6D70696C65746F72616D3F711122
:1024E00006C0C53B1D3D1344F4FF824011018280AC
:1024F00068250000000000000C636F6D70696C655A
:10250000746F72616D00711106C0D13FA287804067
:102510009104B5EF370700205C43184B63E6E702F0
:10252000EFF0EF8923205661726961626C65732058
:10253000636F6C6C69646520776974682064696393
:1025400074696F6E6172790AF11480C037040020DB
:1025500018405C4058C01CC018445C4458C41CC49B
:1025600001448240110165BD942500000000000077
:102570000E636F6D70696C65746F666C6173680073
:10258000711106C0A93FA28780409104D5FF824007
:1025900011018280B42500004000000008286C6111
:1025A000746573742900F11480C03704002021047D
:1025B00082800000CC2500004000000004286470E8
:1025C0002900F11480C0370400208280D02600004A
:1025D00000000000082863726561746529007111AC
:1025E00006C0EFF00FBE05E0EFE07FFD152043725F
:1025F00065617465206E65656473206E616D65202C
:10260000210A6F00D0689C40E114C0C09CC07524B2
:1026100080409104A2878040910495C39C40E114BE
:10262000C0C09CC0EFE0BFF9095265646566696E81
:102630006520EFF0CF85EFE09FF8022E20000533F4
:10264000793DA28780409104B1E737070020130746
:10265000070281471CC3B539F11480C02144C1333E
:10266000EFD03FECEFF04FF63705002021050C418D
:102670009041B7E639E3938696336319D600F11497
:1026800080C0F11480C02E84EFD09FC300C1804071
:1026900091042DA03D39F11480C03704002021049D
:1026A0000040B13B37070020210700C38040910460
:1026B000F11480C07D54A133EFF00FF119393707C1
:1026C0000020710700C38040910482401101828084
:1026D000EC26000000000000087661726961626CFF
:1026E0006500F11480C005440DA800000827000013
:1026F0000000000009327661726961626C65F11454
:1027000080C0094419A800005C27000000000000F8
:10271000096E7661726961626C65511106C42AC2E4
:102720002EC0753D6D3BA28780409104D5E33D8866
:10273000711122C00A048520EFF0EFFB2285804052
:10274000910411C580C191055D39711565FDF114C4
:1027500080C0024411011364040825A81428000055
:1027600000000000076275666665723A511106C482
:102770002AC22EC08136A5359D33A28780409104A0
:10278000ADE31128EFF02FF79D39F11480C0130449
:1027900000147534B1A83705002041050C41818D26
:1027A000370700201307475363DEE500EFE03FE102
:1027B0000F4E6F7420656E6F7567682052414D0A29
:1027C0006F00F04C0CC1F11480C02E846FF02FC745
:1027D0002D2022858040910419C515317D1575FD88
:1027E00019A021282D39F11480C013040008813C60
:1027F000A240124582453101E1BA711106C0853609
:10280000EFF00FC5F11480C02164130474468240B8
:102810001101F5B64C280000000000000F64696348
:1028200074696F6E6172797374617274711106C02C
:102830007D318240110111E417E4FFFF130444903D
:102840008280370400202104004082808828000014
:10285000000000000E64696374696F6E6172796EC6
:1028600065787400B7E739E3938797331840E382BC
:10287000E7149307900303478700E38CE7120040B7
:10288000F11480C001448280AC2800008100000067
:1028900009686F6F6B2D66696E64F11480C0372410
:1028A00000201304C4798280D8280000C8280000C2
:1028B000000000000466696E6400B727002093875B
:1028C000C7799C43678007006C2900000000000066
:1028D000062866696E642900411106C62AC42EC204
:1028E00032C081450146611122C0804022C2C040F1
:1028F000A1042D3F4840FD576389A704B7E739E39A
:10290000938797336383A704F11480C02104EFE019
:102910009FDBE114C0C0124480C00244EFE0DFAE90
:10292000A2878040910495C3F11480C02104EFE098
:10293000BFDBA285804091042A86F11480C02E84DA
:10294000E93AA2878040910491C7293FA28780403D
:102950009104CDD32E84F11480C032842101B24081
:1029600022459245024641018280000080290000F4
:1029700020000000016BF11480C02244828000001E
:102980009429000020000000016AF11480C0024474
:1029900082800000A8290000200000000169F114D5
:1029A00080C00E8482800000102A000030000000E9
:1029B000056C65617665511106C42AC22EC03705C3
:1029C000002061050C412687F1141C43232EF7FEDD
:1029D0001107E31CB7FE2687F1141C43232EF7FED4
:1029E0001107E31CB7FEF530713C2287804091044B
:1029F000F11598C1F11595479CC10CC183A7C5FF7E
:102A0000850723AEF5FEA240124582453101828042
:102A1000282A0000200000000428646F29006111AA
:102A200012C20EC082800000402A00002000000078
:102A300006756E6C6F6F70008241124221018280B8
:102A4000A42A000030000000052B6C6F6F708D47CA
:102A5000631DF44680409104611106C22AC0F1143E
:102A600080C01704000013046401EFF04FA0378505
:102A70000700130535068DA0634C040033874140E1
:102A8000A29180409104B3874140B3B7E7008280B0
:102A900033874140A29180409104B3874140B337CE
:102AA000F7008280182B000030000000046C6F6F6C
:102AB00070008D47631BF44080409104611106C291
:102AC0002AC0F11480C03784110013043419053A68
:102AD0003795410013053506EFF0AFFFEFD07FD3F8
:102AE000012C498C293A22858040910401C5512E40
:102AF0007D15EDBFF11480C017040000130404F429
:102B0000EFF04F9F37070020610700C3804091041A
:102B10009240024521018280702B000030000000AD
:102B200002646F00711106C01D2037070020610785
:102B3000F11480C00043F11480C0014404C3EFF0DD
:102B40004FF9F11480C00D44824011018280F114CC
:102B500080C0170400001304C4006FF0AF99611126
:102B600012C20EC0A28103A20400C040A104828050
:102B7000B82B000030000000033F646F711106C0E5
:102B8000F937F11480C0378441401304347B853811
:102B9000370700206107F11480C00043EFF06FF3A6
:102BA000D530F11480C00944F11480C005443707C2
:102BB0000020610704C361B7D42B0000300000007F
:102BC000046361736500F11480C00144F11480C096
:102BD00021448280FC2B000030000000033F6F6620
:102BE000A1476314F42E80409104711106C0711145
:102BF00022C080409104392E89A00000602C000082
:102C000030000000026F6600A1476310F42C804082
:102C10009104711106C0711122C080409104F11419
:102C200080C01704000013040403EFF0AF8CEFF032
:102C30004FEA8938F11480C009442D24F11480C072
:102C4000024411010504F11480C0254482401101A1
:102C50008280A28780409104818F93B71700828081
:102C60009C2C00003000000005656E646F66A5476F
:102C7000631DF42480409104711106C0711122C0BB
:102C8000804091048D2CF11480C002441101F11494
:102C900080C021448240110182800000042D000088
:102CA0003000000007656E6463617365A147631EB1
:102CB000F42080409104611106C22AC02285804020
:102CC00091044D2201C5752A7D15EDBF9240024544
:102CD00021018280EFE0BF8E0D4A756D7020746F08
:102CE0006F206661720A65A7711106C03D2021A0A0
:102CF000711106C0A928A28780409104E1DF8240BB
:102D000011018280382D0000410000000C756A2DF1
:102D1000656E636F64696E673F00B707F8FF3377CE
:102D2000F4006304F7006312074A711106C02D28EE
:102D300082401101BDA90000C82D00004100000023
:102D40000C73622D656E636F64696E673F00FD777B
:102D50003377F4006304F70063190746711106C066
:102D6000252882401101B1A19357C40093F7F70FB2
:102D70001397C7009357B400858BD2075D8F935785
:102D8000140093F7F73FD6075D8F93574401858B67
:102D9000FE073364F70082809357B400858B139746
:102DA000770093571400BD8BA2075D8F9357540093
:102DB00093F7F703E6075D8F9357C400858BFE07F3
:102DC0003364F70082800000742E00004100000090
:102DD0000C636A2D656E636F64696E673F009307CD
:102DE00000803377F4006304F7006310073E71112D
:102DF00006C02120824011016DAE93575400858B8F
:102E000013972700935714009D8B8E075D8F935760
:102E10007400858B9A075D8F93576400858B9E079E
:102E20005D8F9357A400858BA2075D8F9357840015
:102E30008D8BA6075D8F93574400858BAE075D8F02
:102E40009357B400858BB2073364F7008280711109
:102E500006C0F11480C021641304247AEFF00FD669
:102E600082401101F11480C017D4FFFF1304E46104
:102E70006FE05FE8E82E0000300000000474686531
:102E80006E00711106C0A287804091041547639AB5
:102E9000E700EFF00FC49C401D8CB9351364F406B5
:102EA00031A809476393E702EFF0AFC29C401D8C45
:102EB0008135B7870700938737065D8CA2878040EE
:102EC0009CC0824011016FF0EFCBEFE04FEF175342
:102ED00074727563747572657320646F6E277420E5
:102EE0006D617463680A65A3082F0000300000005C
:102EF00004656C736500711106C03528EF00703EE3
:102F000082401101BDBF0000282F000030000000EA
:102F100002696600711106C01D3FEFF08FBBF1140E
:102F200080C0094405A00000502F000030000000C0
:102F3000056168656164711106C0EFF08FB9F11425
:102F400080C01544EFF00FD4824011018280000050
:102F50006C2F00003000000006726570656174001F
:102F6000711106C0AD208240110121BF882F0000E1
:102F700030000000057768696C65711106C0593F23
:102F8000824011016F00F035C02F000030000000BA
:102F900005756E74696C711106C0A287804091043A
:102FA0000547E394E7F26535EFF0AFB2EFD07F86E7
:102FB0008133B7870700938737065D8C05A800002B
:102FC000F42F00003000000005616761696E711127
:102FD00006C0A287804091040547E398E7EEEFF032
:102FE0004FAFEFD01F8309331364F4068240110101
:102FF0006FF0EFC018300000300000000562656718
:10300000696E711106C0EFF0CFACF11480C00544B9
:103010008240110182800000403000006206000002
:1030200003616E649C4091047D8C8280377704003C
:1030300013073741B777F400938737436FD0EFF822
:103040006030000062060000036269639C409104E6
:103050001344F4FF7D8C82801344F4FFC1BF000051
:103060008830000062060000026F72009C409104EC
:103070005D8C82803767040013073741B767F4001F
:10308000938737436FD06FF4B030000062060000C2
:1030900003786F729C4091043D8C82803747040016
:1030A00013073741B747F400938737436FD0EFF1E9
:1030B000D43000004100000003636C7A93070002E3
:1030C00019C481476345040006048507E5BF3E84B3
:1030D00082800000EC3000006104000003726F7217
:1030E0009317F40105805D8C82800000043100009C
:1030F0006104000003726F6C9357F40106045D8C49
:1031000082800000283100006206000007617273AF
:10311000686966749C40910433D487408280B757B5
:10312000044093873741A1A04C31000062060000A3
:1031300006727368696674009C40910433D48700FA
:103140008280B75704009387374115A0783100007B
:1031500062060000066C7368696674009C40910406
:10316000339487008280B7170400938737417D88A6
:1031700052045D8C6FF0AFA88C3100006104000038
:10318000036E6F741344F4FF82800000A4310000CA
:103190006104000006696E76657274001344F4FFE2
:1031A00082800000BC31000060040000047472756D
:1031B0006500F11480C07D5482800000D43100008D
:1031C000600400000566616C7365F11480C0014401
:1031D000828000003832000000000000086576613F
:1031E0006C7561746500711106C0EFE0AF9BA2873A
:1031F0009840C040A10461113AC23EC03727002068
:103200001307077B1C4371113EC081471CC3EFE0CD
:103210000F979520372700201307077B824711015E
:103220001CC3824712472101E114C0C098C03E84EC
:10323000824011016FE0AF94643200008100000011
:103240000E686F6F6B2D696E7465727072657400B5
:10325000F11480C0372400201304847982809832CE
:1032600000000000843200000000000009696E7454
:10327000657270726574B7270020938787799C43C5
:10328000678007005C340000000000000B28696EB6
:103290007465727072657429711106C0370500205B
:1032A0001305C526637E9500EFE06FB1105374617E
:1032B000636B20756E646572666C6F770A00C1AAD5
:1032C000370500201305C506636D9500EFE02FAFAD
:1032D0000F537461636B206F766572666C6F770A4B
:1032E0007DA2370700205107832307006395030061
:1032F000A68323207700EFE0CFEC11E4C040A104C7
:103300008240110182809C40E114C0C09CC0EFF05B
:10331000CFDAA2859040C040A10405EA8840A2858A
:10332000912C22868040910435FAE114C0C088C0F7
:103330002E84EFE0CFB5EFE08FA80C206E6F7420E5
:10334000666F756E642E0A0099A2B72600209386D8
:10335000467A9442A1E63707002051078143232093
:10336000770093070003B3F6F5006391F602EFE0F0
:103370000FB2EFE0CFA41220697320636F6D706904
:103380006C652D6F6E6C792E0A0011A2C040A104ED
:10339000F11480C03284EFE0FFC809B7C040A10437
:1033A00013F5050819E9B3869340898213F50504DE
:1033B00019C913F5F50063E8A600F11480C0328442
:1033C000EFE05FC6E1BD13B51600631DA00013F565
:1033D000052009C9F11480C03284EFE0BF9BEFE003
:1033E0007FC46DBD9120372700201307477A18430B
:1033F00085476319F70013F7054009E7EFE03FBB86
:10340000EFE0FFB6F11480C0328413F6050101C667
:10341000EFE05FC161B513F6050201C6EFE09F8DD5
:10342000B5BDEFE0DF849DBD711106C091CEFD16E4
:10343000F11480C03684EFD08F90EFE05F80E5FA22
:103440009384C3FF804091043707002051078143D4
:103450002320770082401101828000008034000028
:103460008100000009686F6F6B2D71756974F1142C
:1034700080C037240020130444798280FC3400008B
:10348000EC3400000000000004717569740037011D
:1034900000201301C146B70400209384C4263727B7
:1034A00000201307C77FA9471CC337270020130735
:1034B000477A81471CC33707002051071CC33727B1
:1034C00000201307077B1CC3372700201307877AC8
:1034D0001CC3B70700209387C7465CC3B7270020EB
:1034E000938747799C4367800700000010350000F0
:1034F000000000000628717569742900EFD07FED87
:103500009D3BEFE0CF8B05206F6B2E0AC5BF0000FF
:1035100064350000000000000564696769741304E5
:1035200004FD63640402A9476363F4026514636ED7
:10353000F40093074002636CF4000114A94763662A
:10354000F400930740026364F40001448280B727CB
:1035500000209387C77F9C43E379F4FEF11480C079
:103560007D5482801037000000000000066E756DEB
:1035700062657200111106CC16CA1AC82AC62EC47A
:1035800032C236C0B72700209387C77F9C43711192
:103590003EC0A28580409104228505448546814233
:1035A00001438D47639FF5009307700203470500B1
:1035B0006319F700034725006315F70083421500E0
:1035C0005DA8D5C9034605000505FD159307D00282
:1035D0006314F600FD56F5B7930730026319F60041
:1035E000A947372600201306C67F1CC2D9BF930700
:1035F00040026319F600C147372600201306C67F34
:103600001CC2C1B7930750026319F60089473726D9
:1036100000201306C67F1CC26DB79307E002631437
:10362000F600094479BF9307C002630EF608F1144F
:1036300080C03284ED35A28780409104A5C7E11493
:10364000C0C023A054001A84F11480C03724002085
:103650001304C47F0040F11480C00144F125EFC081
:10366000BFEAF11480C001444125228383A20400F3
:10367000C040A104B9B7634DD000E114C0C023A07D
:1036800054001A84012D228383A20400C040A104A7
:10369000F11423A0540085476305F400F11423A01E
:1036A000640011A00144824711013727002013074D
:1036B000C77F1CC3E240D24242433245A245124674
:1036C000824671018280168381420944CDD5FD1561
:1036D000B307B50003C607009307E002E308F6FE50
:1036E000F11480C03284253DA28780409104DDDB47
:1036F000F11423A05400F11480C0372400201304D7
:10370000C47F0040EF009005A282C040A1047DBFAD
:103710004037000000000000062E646967697400ED
:10372000A9476375F40013040403828093074002E1
:103730006375F400130474038280130430028280E2
:10374000943700000000000004686F6C6400711181
:103750002AC03705002013054502034705009307DB
:1037600070046374F70205072300E5003A95854766
:10377000630BF7007D1583470500A300F5007D1757
:103780008547E319F7FE2300850080409104024538
:1037900011018280D03700000000000005686F6CC6
:1037A000643C71112AC03705002013054502034708
:1037B0000500930770046378F70005072300E50010
:1037C0003A952300850080409104024511018280D2
:1037D000F037000000000000047369676E00634565
:1037E00004008040910482801304D0028DB7000051
:1037F000103800000000000002233E00B707002040
:103800009387470203C4070085079CC0828000009D
:10381000343800000000000003662353611106C223
:103820002AC01305000229287D1575FD9240024526
:10383000210182805C380000000000000266230045
:10384000711106C0F11480C0372400201304C47F16
:103850000040592AF13582401101A1B77C3800009F
:103860000000000002235300711106C029287DFCCE
:103870009C40EDFF8240110182800000B0380000C2
:10388000000000000123711106C0F11480C037242C
:1038900000201304C47F0040F11480C001440D27B0
:1038A000892480409104AD3D824011014DB5000056
:1038B000CC38000000000000023C23003707002045
:1038C0001307470281472300F7008280E438000095
:1038D0000000000002662E00F11480C013040002F4
:1038E00001A80000343900000000000003662E6EBD
:1038F000611106C22AC0228580409104EFC07FBFBB
:10390000BD2EF11480C00144553FB93F8040910461
:103910001304C002793501C525377D1575FD0245B3
:10392000110180409104653DF11480C0F11480C004
:1039300035A800004C390000000000000375642E1B
:10394000711106C0A53F0D3715A000007C3900009D
:103950000000000002642E00711106C0EFC07FB9A4
:10396000392EA93F1137EFC03FBA953D413DEFD009
:103970001FD2824011016FD05FB300009039000068
:103980000000000002752E00F11480C001444DBFFC
:10399000A439000000000000012EF11480C07D84D5
:1039A00065BF0000DC39000062060000012A9C406F
:1039B0009104338487028280B707F40293873743E8
:1039C000711106C0F1149CC0F11480C03D44EFE0B9
:1039D0008F98824011016FE09FA20000F83900002B
:1039E0006204000003756D2A9C403387870298C0EB
:1039F00033B4870282800000143A000062040000A1
:103A0000026D2A009C403387870298C03394870256
:103A100082800000303A000062040000066D756C80
:103A2000687375009C40910433A487028280000073
:103A3000503A000062060000012F9C40910433C4FC
:103A400087028280B747F4029387374395BF00000F
:103A5000703A000062060000036D6F649C409104A0
:103A600033E487028280B767F4029387374389BFC4
:103A70008C3A00006204000005752F6D6F649C4055
:103A800033F7870298C033D487028280A83A0000B7
:103A900062040000042F6D6F64009C4033E78702CE
:103AA00098C033C487028280C03A000062040000DC
:103AB0000432647570009C40E114C0C09CC08280D8
:103AC000D43A000062040000053264726F70C04096
:103AD000A1048280F43A00004400000005327377AC
:103AE0006170A287C040DCC09C4098449CC498C0D0
:103AF000828000000C3B00006204000004326E690A
:103B000070009C40A1049CC082800000283B000003
:103B10004400000005326F766572E114C0C09C4815
:103B20009CC0C044828000004C3B00004400000068
:103B300005327475636B98409C44E11498C098C832
:103B4000D844D8C09CC4C0C482800000703B000030
:103B5000460000000432726F74009C4098449CC47C
:103B60009C4898C89CC0D840C0C0C044D8C482807B
:103B7000943B00004600000005322D726F7498409F
:103B80009C4898C8984498C09CC4D844C0C4C040BD
:103B9000D8C08280B03B00002000000003323E729B
:103BA000611122C0804022C2C040A1048280000076
:103BB000CC3B0000200000000332723EE114C0C084
:103BC000124480C00244210182800000E43B0000D6
:103BD0002000000003327240E114C0C0124480C0D3
:103BE00002448280F83B000020000000063272642C
:103BF000726F700021018280143C000042000000BE
:103C00000364322F9C401317F40105848583D98FF8
:103C10009CC08280303C0000420000000364322AD5
:103C20009C4013D7F701BE972294598C9CC0828088
:103C3000503C0000420000000464736872009C4025
:103C40001317F40105808583D98F9CC08280000002
:103C5000703C000042000000046473686C009C40EB
:103C600013D7F701BE972294598C9CC08280000024
:103C7000843C000042000000046461627300634BF6
:103C800004008280AC3C00004200000007646E65C6
:103C9000676174659C4093C7F7FF1344F4FF138773
:103CA000170098C0B337F7003E948280DC3C0000D8
:103CB0004400000002642D0071112AC09C44984009
:103CC0003385E74088C433B5E700DC403384874060
:103CD000098CA1040245110182800000083D00000A
:103CE0004400000002642B0071112AC09C449840DB
:103CF0003385E70088C43335F500DC403E942A94D0
:103D0000A1040245110182801C3D00004100000019
:103D100003733E64F11480C07D848280383D0000CE
:103D2000440000000375642A711106C02928C040B0
:103D3000A1048240110182809C3E000044000000EA
:103D40000475646D2A00011106CE16CC1ACA1EC86D
:103D50002AC62EC432C236C0F11480C0C040F1144D
:103D600080C080485131A2858840C040A104F11430
:103D700080C08040F11480C0C044BD31A286904014
:103D8000C040A104F11480C08040F11480C080487C
:103D9000A1398147B302860033B3C2003386F200F3
:103DA000B3335600B3677300B382060033B3D20057
:103DB000B386F200B3B35600B3677300804091043A
:103DC0008147B382850033B3B200B385F200B3B349
:103DD0005500B3677300B302060033B3C2003386E5
:103DE000F200B3335600B3677300B382060033B3F7
:103DF000D200B386F200B3B35600B36773008040BD
:103E00009104F11480C0C040F11480C0C044E93E68
:103E10008147B302860033B3C2003386F200B33366
:103E20005600B3677300B382060033B3D200B38683
:103E3000F200B3B35600B36773008040910481472A
:103E4000B382850033B3B200B385F200B3B355003B
:103E5000B3677300B302060033B3C2003386F200C7
:103E6000B3335600B3677300B382060033B3D20096
:103E7000B386F200B3B35600B36773008040910479
:103E8000368490C0CCC088C4F240E2425243C24360
:103E90003245A2451246824605618280C83E000036
:103EA00043000000022A2F00711106C0711122C0C8
:103EB00080409104813EF11480C002441101D12060
:103EC0009104824011018280F43E00004300000012
:103ED000052A2F6D6F64711106C0711122C08040D8
:103EE00091040D36F11480C0024411018240110189
:103EF00049A80000203F00004300000003752A2F5E
:103F0000711106C0711122C080409104F13CF1147E
:103F100080C00244110199209104824011018280E5
:103F20004C3F00004300000006752A2F6D6F6400AF
:103F3000711106C0711122C0804091047534F114D2
:103F400080C0024411018240110109A8743F0000A1
:103F50004300000006756D2F6D6F6400711106C07F
:103F6000F11480C00144A92880409104910482404A
:103F700011018280B03F000043000000056D2F6DED
:103F80006F64711106C0F11480C07D84CD20804023
:103F90009104910482401101828041112AC62EC4ED
:103FA00032C236C08146D0408C4401451DA000007D
:103FB00060400000440000000675642F6D6F6400CF
:103FC00041112AC62EC432C236C081460146CC40B9
:103FD000884431110EC812C616C41AC21EC02282ED
:103FE00083A104001304000486069357F601DD8EB6
:103FF000060693D7F5015D8E86059357F501DD8D95
:1040000006056366D20063EA4602636836028147AA
:10401000B3023640333336003386F240B3B3F20096
:10402000B3677300B382464033B34600B386F240B1
:10403000B3B3F200B367730005057D1455F42E8405
:1040400088C0D4C090C4C2413242A24212438243CB
:1040500051013245A245124682464101828000004C
:10406000B84000004400000005642F6D6F647111BA
:1040700006C0635304023939AD34635A0400193958
:104080008D343D3FB93C39318240110199BC913C9E
:10409000053F82401101FDBEA934635B0400DD3E93
:1040A0008934393FC53E353CF5368240110115BC97
:1040B0000D3C8240110129B7D040000044000000AF
:1040C00002642F00711106C05D378240110115BCDA
:1040D0001C4100004400000002662A00711106C065
:1040E00063500402453EF53A635004026536A13937
:1040F000804091049C4091049CC0824011018280C8
:10410000CD32E35604FE79363D39804091049C401F
:1041100091049CC082401101B5BE00005C410000CA
:104120004400000002662F00711106C0635D0400A8
:104130009536453A635D0400B13E6532B93DD132F2
:10414000824011018280713AE35904FEA136513A4E
:10415000A9358936824011016DB200007841000016
:1041600000000000023221009C40D8401CC058C012
:104170008044B104828000009041000000000000F3
:1041800002324000F1145C409CC00040828000007C
:10419000C8410000440000000364753C71112AC04E
:1041A0009C44984033B5E700DC4033B7A700898FC3
:1041B000B3B7870033E4E7007D141344F4FFB10480
:1041C0000245110182800000E0410000440000002F
:1041D0000364753E711106C02932824011017DBF12
:1041E0000C4200004400000002643C00511106C46F
:1041F0002AC22EC01355F441CC40FD854537298C89
:104200002D8CA2401245824531018280244200005B
:104210004400000002643E00711106C0D9308240A3
:104220001101E9B738420000620400000364303C29
:1042300091047D848280000054420000420000000E
:104240000364303D9C4091045D8C133414003304AE
:1042500080408280784200004400000003643C3EBD
:10426000DC403D8C9C409844B98FB1045D8C133484
:1042700014007D14828000009C4200004400000075
:1042800002643D00DC403D8C9C409844B98FB104F1
:104290005D8C13341400330480408280E8420000B7
:1042A0004300000007326C73686966741374F4038A
:1042B00071C8130704FE63490700DC403394E7002C
:1042C000910423A004008280DC4033978700D8C08B
:1042D00013070002018FB3D7E7009840331487001B
:1042E0005D8C910482800000384300004300000090
:1042F00007327273686966741374F40341C4130758
:1043000004FE634907009C40B3D7E70091049CC0BA
:10431000014482809C4033D7870098C01307000275
:10432000018FB397E700D840335787005D8FD8C01F
:1043300080409104828000008C4300004300000014
:10434000083261727368696674001374F4031DC8DF
:10435000130704FE634A07009C4013D4F741B3D708
:10436000E74091049CC082809C4033D7874098C02E
:1043700013070002018FB397E700D8403357870037
:104380005D8FD8C08040910482800000E04300002F
:1043900000000000046D6F76650071112AC022874D
:1043A0009C40C040A10405CB6307F40263ED870085
:1043B0003A94BA970345F4FFA38FA7FE7D14FD1727
:1043C0007D176DFB09A8034504002380A7000504A1
:1043D00085077D176DFB80409104024511018280A5
:1043E00008440000000000000466696C6C0022872D
:1043F0009C40C040A10491C72300E4000504FD17C0
:10440000E5FF8040910482808C440000200600007B
:10441000014000408280B727040093873740611134
:1044200006C22AC03E85711122C080409104FD164B
:10443000EFE09FFFF11480C002441101EFD05F81D3
:10444000930700803377F4006303F70011E7B78721
:10445000F0FFFD177D8D05A0856793870780E18FAD
:1044600099C385673E94F11480C0FD777D8C1364F9
:104470007443EFD0DFF88567FD17E18FD20733640F
:10448000F5009240024521016FD07FF738450000CA
:104490002006000001219C401CC0C040A104828075
:1044A0003727870013073702B727F70093873702AC
:1044B000611106C22AC0FD1691E63A851520EFE08B
:1044C0007F9A19A83E85A28780409CC0F11480C0C5
:1044D0003D44EFD04FE829209240024521018280DF
:1044E000711106C0930700803377F4006303F7006F
:1044F00011E7B787F0FFFD177D8D05A085679387CE
:104500000780E18F99C385673E94F11480C0FD77E1
:104510007D8C13647473EFD09FEE9377F4019E0744
:104520005D8D85678117E18F9583E6073364F5001C
:10453000824011016FD0BFEC544500000000000024
:10454000022B21009C401840BA971CC0C040A10417
:1045500082800000704500002006000002684000D4
:10456000035404008280B75704009387374045BD49
:1045700094450000200600000868407369676E6576
:104580006400031404008280B71704009387374047
:1045900079B50000C0450000200600000268210037
:1045A0009C402310F400C040A1048280371787008C
:1045B00013073702B717F70093873702D5BD0000FE
:1045C000E04500000000000003682B219C400357D9
:1045D0000400BA972310F400C040A10482800000B8
:1045E000FC45000020060000026340000344040074
:1045F0008280B74704009387374015B520460000F6
:10460000200600000863407369676E656400030458
:1046100004008280B70704009387374009B5000083
:104620004C46000020060000026321009C4023004D
:10463000F400C040A10482803707870013073702C7
:10464000B707F70093873702A5B500006C46000056
:104650000000000003632B219C4003470400BA972D
:104660002300F400C040A1048280000088460000BE
:10467000000000000462697321009C401840D98F3B
:104680001CC0C040A1048280A846000000000000B9
:104690000462696321009C4093C7F7FF1840F98FBB
:1046A0001CC0C040A1048280C4460000000000007D
:1046B00004786F7221009C401840B98F1CC0C04024
:1046C000A1048280E44600000000000004626974D6
:1046D00040001C40804091047D8C133414007D14F4
:1046E0008280000004470000000000000568626945
:1046F00073219C4003570400D98F2310F400C0405D
:10470000A10482802847000000000000056862695B
:1047100063219C4093C7F7FF03570400F98F2310D0
:10472000F400C040A104828048470000000000005F
:104730000568786F72219C4003570400B98F2310DD
:10474000F400C040A104828068470000000000001F
:1047500005686269744083570400804091047D8C31
:10476000133414007D14828088470000000000008C
:104770000563626973219C4003470400D98F2300BD
:10478000F400C040A1048280AC470000000000009B
:104790000563626963219C4093C7F7FF03470400E8
:1047A000F98F2300F400C040A1048280CC470000B0
:1047B000000000000563786F72219C4003470400ED
:1047C000B98F2300F400C040A1048280EC470000B0
:1047D0000000000005636269744083470400804064
:1047E00091047D8C133414007D14828000500000ED
:1047F000FFFFFFFF182D2D2D20466C6173682044AC
:10480000696374696F6E617279202D2D2D00FD47EB
:10481000739007BC8D477390478097C7FFFF9387BE
:10482000678293E73700739057308967938787884B
:1048300073A00730B717024098431367170098C357
:10484000D843B706FFF8758FD8C39843B706F7FE6D
:10485000FD16758F98C39843B706FCFFFD16758F3C
:1048600098C3D843B70681FFFD16758FD8C33707A5
:104870009F0098C73747024013070780144393E609
:10488000060114C3D843B706C1FFFD16758FB706DE
:104890003C00558FD8C39843B7060001558F98C385
:1048A000B70600029843758F75DFD8439306C0FFA3
:1048B000758F13672700D8C3A146D843318BE31EF9
:1048C000D7FEEFC0FF828140370100201301C146AF
:1048D000814101428142014381431304A002B70494
:1048E00000209384C4260145814501468146014745
:1048F000814737070020B7070020938747531CC321
:1049000037070020210797C7FFFF938767831CC3E2
:10491000F11480C017C4FFFF13048482B733002052
:10492000938303804C40FD56638FD508B7E639E387
:10493000938696336389D50893F60510ADC271113D
:1049400022C02104EFC05FDAEFD0CFC48356040049
:10495000035524004205C98EB383D340024411019C
:104960009DA02F01000000000020330120242544D9
:1049700024036718907900000000073631098AA0E7
:104980004224A031B0038620948301000600080071
:104990000018200A2E275F2D60285C2F293C93F6F3
:1049A000050895C2BD898A05B383B340F11480C060
:1049B0002104EFC07FD3EFD0EFBDE114C0C023A02E
:1049C00074002E84D93AEFD0FFE92285804091040B
:1049D00031D937050020310500C1804091043705E9
:1049E00000204105232075002165956537E639E3F0
:1049F000130696336307B50071151441E38CC6FEA8
:104A00001105B7050020910588C1EFC05FBB514D6E
:104A10006563726973702D5175696E747573203199
:104A20002E312E3220666F7220524953432D56206C
:104A300052563332494D43206F6E2043483332562D
:104A400032303347362040203134344D487A2062AA
:104A500079204D61747468696173204B6F63680AD3
:104A6000370100201301C146B70400209384C426F7
:104A7000372700201307C77FA9471CC3372700200B
:104A80001307477A81471CC33707002051071CC30F
:104A9000372700201307077B1CC337270020130785
:104AA000877A1CC3B70700209387C7465CC3F114FD
:104AB00080C01704000013048402F11480C0114464
:104AC000EFD0BFDF8040910409C4EFD0AFD56FE0D5
:104AD000FFA0804091046FE09F9B696E69740100A4
:104AE000130000001300000013000000130000007A
:104AF000130000001300000013000000130000006A
:00000001FF
